:020000040800F2
:100000002026002035020008173C0008E9360008C9
:1000100001390008B93000086D55000800000000E3
:100020000000000000000000000000001F46000863
:10003000D9320008000000002D3D00083B4F0008A9
:100040004B0200084B0200084B0200084B0200085C
:100050004B0200084B0200084B0200084B0200084C
:100060004B0200084B0200084B0200084B0200083C
:100070004B0200084B0200084B0200084B0200082C
:100080004B0200084B0200084B0200084B0200081C
:100090004B0200084B0200084B0200084B0200080C
:1000A0004B0200084B0200084B0200084B020008FC
:1000B0008D4F00084B020008855000084B020008D5
:1000C0004B0200084B0200084B0200084B020008DC
:1000D0004B0200089D520008315300089D53000850
:1000E0004B0200084B0200084B02000800F002F827
:1000F00000F090F80AA090E8000C82448344AAF132
:100100000107DA4501D100F085F8AFF2090EBAE82F
:100110000F0013F0010F18BFFB1A43F0010318473B
:10012000AC710000CC710000103A24BF78C878C1CF
:10013000FAD8520724BF30C830C144BF04680C60ED
:10014000704700000023002400250026103A28BF35
:1001500078C1FBD8520728BF30C148BF0B60704739
:100160006E2900F09183702900F0F786662906F069
:10017000FD85652906F0FA85672906F0F78561296E
:1001800006F0F68503681B0A28BF41F08001692943
:1001900000F0E480642900F0E180752900F0DE8041
:1001A0006F2900F08586782900F0C386E92900F0E0
:1001B0001F86E42900F01C86F52900F01986EF2936
:1001C00000F08286F82900F0C2860368DB0928BFA8
:1001D00041F08001632900F0A085732900F0A58516
:1001E000E32901F0BD81F32901F0C28100207047AD
:1001F0001FB500F09BFF04000020002105F09AFFCE
:10020000401C60600020002105F07EFFE0601FBD03
:1002100010B510BD01F0CCFA1146FFF7E9FF05F06B
:1002200045FD01F04BFD03B4FFF7F2FF03BC01F005
:1002300071FF000008480047FEE7FEE7FEE7FEE723
:10024000FEE7FEE7FEE7FEE7FEE7FEE703480449B8
:10025000044A054B70470000ED000008201A0020FA
:100260002026002020220020202200201CB50C4641
:10027000064B7B4469460090204600F02CFD044666
:100280000020694600F03AFD20461CBD870A0000A8
:100290000FB41CB5084B06AA7B446946009005982C
:1002A00000F019FD04460020694600F027FD2046B5
:1002B0001CBC5DF814FB0000610A000070B5044628
:1002C00085690068C10601D5302600E02026C007F8
:1002D00007D070BDD4E9012130469047206A401C08
:1002E00020626D1EF6D570BD70B504468569007834
:1002F000C00707D170BDD4E9012120209047206AB2
:10030000401C20626D1EF6D570BD70B50C460546CA
:10031000012A05D02878800600D5EA69002302E08A
:10032000012305E05B1C934202D2E05C0028F9D176
:10033000A869E618C01AA861286A184428622846E5
:10034000FFF7BCFF04E0D5E9012114F8010B904749
:10035000B442F8D32846FFF7C7FF70BD2DE9F0413E
:100360000646002410687529314616A510D000F005
:1003700020FA002802DA404213A507E031688A0714
:1003800001D512A502E0490704D511A5012401E019
:1003900000F018FA00210A2206F1240709E0B0FB58
:1003A000F2FCB0FBF2F302FB1C003030785418462C
:1003B000491C0028F3D123462A463046BDE8F041C7
:1003C00000F009BA000000002D0000002B00000022
:1003D000200000002DE9F05F894604464FF0000A36
:1003E000DFF874B1FB44C0F820A02046E1688847DC
:1003F000002874D0252806D0D4E901219047206A2E
:10040000401C2062F1E700265F462046E1688847ED
:100410002028054607DB312D05D2781910F8200C6D
:1004200008B10643F1E7B00701D526F00406C4F889
:100430001CA00027C4F818A02A2D09D0284605F0D2
:1004400010F938B304EB8708303DC8F8185019E0AC
:1004500059F8041B204604EB87029161E168884744
:10046000012F054618D1E069002820DA26F0200681
:100470001DE0D8F8180000EB800005EB4000303894
:10048000C8F818002046E1688847054605F0E9F8F5
:100490000028EED1012F0AD02E2D08D12046E16888
:1004A00088477F1C0546022F46F02006C4DBA06962
:1004B000002803DA404246F00106A061F00701D0AF
:1004C00026F010066C2D0BD0682D09D04C2D39D09C
:1004D0006A2D35D0742D35D07A2D33D016E038E022
:1004E000E1682F4620468847B842054609D16C2F5F
:1004F00026D04FF48060E1680643204688470546D1
:1005000004E06C2F1AD04FF4807006430DB3A5F1B0
:100510004100192802D8203546F400664A4629468B
:10052000204626604E46FFF71BFE80B101280BD007
:10053000F61D26F0070000F1080956E74020E4E721
:100540008020D8E70020D6E706F104094DE72846C9
:1005500052E7206ABDE8F09F886C000070B506463F
:1005600000F018F90468054630460A22002100F020
:100570004FFD2C6070BD0000014A00F081BD0000FD
:10058000F4000020401ECAB210F8011F8A4202D0B7
:100590000029F9D10020704730B505460B462A46A0
:1005A00013F8014B12F8010B08B1A042F8D01CB1AE
:1005B000002802D06D1CF1E7284630BD40EA010357
:1005C000024630B59B0710D14FF0013400E008C25D
:1005D00008C91D1B9D4315EAC41FF8D013F0FF0185
:1005E00002F8011B0DD01B0AF8E711F8013B002BA4
:1005F00002F8013B05D011F8013B002B02F8013B4A
:10060000F3D130BD0022CBB210F8011B994200D1CA
:10061000421E0029F8D11046704710B5431C02E075
:1006200010F8011B71B18107FAD14FF0013202C8F5
:100630008C1A8C4314EAC211F9D0C01A0A0603D0EE
:10064000C01E10BDC01A10BD0A0401D0801E10BD0E
:100650000902FCD0401E10BD421E12F8013F002BC3
:10066000FBD111F8013B002B02F8013BF9D1704797
:100670004FF000020429C0F0128010F0030C00F0CB
:100680002385CCF1040CBCF1020F18BF00F8012B3C
:10069000A8BF20F8022BA1EB0C0100F015BD5FEA0A
:1006A000C17C24BF00F8012B00F8012B48BF00F8E3
:1006B000012B704710B5044610F0030F08BF11F06E
:1006C000030F40F015804FF0013E121FC0F20E8064
:1006D00051F8043BA3EB0E0C2CEA030C1CEACE1CD5
:1006E00008BF40F8043BF0D0A1F1040102F104027C
:1006F000521E08DB11F8013B002B00F8013BF7D13B
:100700001146FFF7B5FF204610BD00004FF0013C39
:1007100050F8042B51F8043B9A4221D1A2EB0C0370
:10072000934313EACC1317D150F8042B51F8043B30
:100730009A4215D1A2EB0C03934313EACC130BD1CD
:1007400050F8042B51F8043B9A4209D1A2EB0C0358
:10075000934313EACC13DBD04FF00000704700BF87
:10076000D01A01BAB1FA81F101F0180122FA01F0B0
:10077000CB40C1F12001DBB2C0B2C01A2CFA01F3A8
:10078000D11A914311EAC311E6D1704770477047FF
:100790007047000000487047C019002010B5FFF7EF
:1007A000F9FF006810BD10B50446FFF7F3FF0460C1
:1007B00010BD09684A0501D540B27047C905FCD58E
:1007C00000B2704709684A0501D5C0B27047C90533
:1007D000FCD580B270472DE9F0470D469946924608
:1007E000044600F124080168880604D5E06921F078
:1007F0001001216000E00120A84201DD471B00E05C
:100800000027A1697A1902EB0900081AA061207873
:10081000C00602D42046FFF751FD002608E0D4E9C7
:1008200001211AF806009047206A401C761C2062BD
:100830004E45F4DB2078C0060AD52046FFF73EFD82
:1008400006E0D4E9012130209047206A401C206254
:10085000381EA7F10107F4DC07E0D4E9012118F8FC
:1008600005009047206A401C2062281EA5F1010562
:10087000F3DC2046FFF738FD2078000602D5022081
:10088000BDE8F0870120FBE711680268006A5305A4
:1008900001D508700AE0D30501D5088006E01306EB
:1008A00003D5C217C1E9000200E0086001207047CB
:1008B00070472DE9FF4F0C461E464FF0FF378BB0B7
:1008C000D2E90001DDF860800A908A46C1F30A553A
:1008D00005B93D46002108464FF00000BAF1000F6F
:1008E00000F4400005DA00EB80004FF4400101EA1B
:1008F00050004FEA9059B9F1010F00DDB9460A984E
:1009000050EA4A000ED044F61050A5F2FF35454398
:100910002F14B8F1000F1ED07542291E1EDDC9F13B
:1009200000021CE0B8F1010F4FF0000001D03021AF
:1009300003E0F24305E02154401CB042FBDB3046AB
:100940000022002121540B99C1F80880C1E9002040
:100950000FB0BDE8F08FBD1B6D1CDEE74A4600DA24
:10096000694206A800F078FE06AB93E8070003ABE7
:1009700083E8070050460A9901F0E6FB8DE807007E
:10098000A0F500501F3800900398002D09DD42F2B9
:100990001F014A46084403A90390684601F06FFE10
:1009A00008E0A0F500504A461F3803A903906846A6
:1009B00001F08DFE8DE807000004000C03D04FF01D
:1009C000FF30410800E01046B8F1000F03D00022CC
:1009D000009215461EE0751E05D400F0ABFB3032C8
:1009E00062556D1EF9D5B3460122084302D000229C
:1009F0007F1C04E02078302801D100227F1E002ACD
:100A0000099786D01DE0112D07DA00F093FB3032F4
:100A100062556D1C50EA0102F5D1084302D00098DE
:100A2000C8B10EE00021681E05E0235C625C6354DF
:100A30002254401E491C8142F7DBAB46A81B401ED6
:100A40000990002004F80B000B98099AC0F8088060
:100A5000C0E9002B7CE711264FF0000859E72DE98B
:100A6000F04F88460446D21D22F0070191B0D1E92B
:100A70000001CDE90A0104F07AFD02460B98C00F8F
:100A800001D02D2007E02068810701D52B2002E04E
:100A9000202101EAC000032A099001D0072A05DBC2
:100AA00003464146204600F011FD0BE12078800608
:100AB00001D5E06900E00620B8F1650F814606D057
:100AC000B8F1660F18D0B8F1670F70D131E000208F
:100AD000B9F1110F009001DB112301E009F10103CD
:100AE0000AAA01A90CA8FFF7E4FEDDE90C700026B4
:100AF00009F10105834647E001204B4600904FF085
:100B000000470AAA01A90CA8FFF7D3FEDDE90DB042
:100B10000C995D46002610B909F101000D18B9EBDA
:100B2000050003D4C0F1FF3609F10105A5EB09006A
:100B30002BE0B9F1010F01DA4FF001090020B9F102
:100B4000110F0090484601DD112300E003460AAA78
:100B500001A90CA8FFF7ADFEDDE90C704D4600269B
:100B60008346207800070AD4AB4500DA5D4601A829
:100B7000012D04DD411911F8011C302907D04F4522
:100B800002DA17F1040F04DA012082460FE06D1E2D
:100B9000EEE7002F02DCED1B3E4403E0781CA84288
:100BA00000DD7D1CB81B00F1010A4FF000472078E2
:100BB000000703D4AA4501DB4FF0FF3A0021B7F14B
:100BC000004F0DF143088DF8431024D002202B2351
:100BD000002F01DA7F422D230A21021EA0F101001D
:100BE00000DC5FB197FBF1FC97FBF1F201FB1C7C91
:100BF00017460CF1300C08F801CDEEE7A8F1010022
:100C000003702188090501D5452100E06521A0F187
:100C1000010800F8011C09980FA9A1EB0807FF1DA6
:100C200000B10120411901EBEA70A1693844081AAA
:100C3000401EA0612078C00602D42046FFF73EFB8C
:100C4000099828B1D4E901219047206A401C20620C
:100C50002078C00622D52046FFF730FB1EE0002E8C
:100C600004DBB34502DD01A8805D00E03020D4E95B
:100C700001219047206A401C2062761CAAF10100E5
:100C80005FEA000A0AD100F051FAC0680168405CCE
:100C9000D4E901219047206A401C2062281EA5F15A
:100CA0000105DCDC07E0D4E9012118F8010B9047CD
:100CB000206A401C2062381EA7F10107F3DC2046A1
:100CC000FFF712FB032011B043E6000001694A1C44
:100CD00002610878704700B58FB0CDE9013100217D
:100CE000059105497944CDE9031011466846FFF79F
:100CF00071FB0FB000BD0000E5FFFFFF0A6802F8BE
:100D0000010B0A60704710B5436913B1AFF300805F
:100D100001E0FFF7FAFA012010BD127800F124017A
:100D20000A7000224A700122EDE711684FF0FF328D
:100D3000E9E700002DE9FF5F15468A460446DFF823
:100D4000AC80F8440027D8E900103E46CDE90010F9
:100D500010E03AF816106A4602A800F0EBFC411CBD
:100D600007D02178890603D5E269391891420DD858
:100D70000744761C2078800602D5E069B84205DD7C
:100D8000AE42E6DB3AF816000028E2D1A069C01BAB
:100D9000A0612046FFF792FAD8E90010CDE90010D3
:100DA000002017E03AF818106A4602A800F0C2FCCA
:100DB000B0F1FF3F81460BD000250DF1080B05E097
:100DC000D4E901211BF8050090476D1C4D45F7D370
:100DD00008F10100B0428046E4DB206A384420621A
:100DE0002046FFF781FABDE8FF9F00003E63000048
:100DF0002DE9F0418046D21D22F007020025D2E9FC
:100E00000002F52915A614D0011E72F1000106DAC0
:100E10000023D0EB030063EB020211A608E0D8F830
:100E200000108B0701D50FA602E0490701D50EA6D9
:100E300001251146002408F1240704E000F07AF9A6
:100E400030323A55641C50EA0102F7D12B46324643
:100E500021464046BDE8F041FFF7BDBC0000000060
:100E60002D0000002B0000002000000030B4002105
:100E700000F1240408E002F00705D208303542EA08
:100E80004372DB086554491C52EA0305F3D1046838
:100E9000002310A2250708D504F020040C4304D039
:100EA000C46901230CA2641EC46130BCFFF793BC6B
:100EB00010B5044621461068FFF784FC0246204620
:100EC000BDE810400023D1E7D21D22F00701D1E98F
:100ED0000023CBE70000000030000000F0B40D4616
:100EE0000188090502D5214C7C4402E01F4C7C445A
:100EF0000E34002100F1240608E002F00F07120969
:100F0000E75D42EA03721B097754491C52EA030762
:100F1000F3D102780023120704D5702D06D009B151
:100F2000022311342246F0BCFFF755BC01231034D4
:100F3000F8E770B504460D4621461068FFF742FCFD
:100F4000024629462046BDE870400023C6E7D21D70
:100F500022F00703D3E90023C0E70368126843F0D7
:100F6000200303600823C3610023B7E7A0610000EA
:100F70000FB4002300B589B00CA900910B99CB6088
:100F8000204B7B440693204B7B44079304236FF054
:100F90000042CDE901321D4A7A446B46089202466E
:100FA000002005F047FF09B05DF814FB70B5064658
:100FB0004FF0FF3015460C46324686B00091CDE921
:100FC000010169460020049004A8FFF7D1FF034601
:100FD0000498211825B108B10A4600E022462A608B
:100FE00000280DD0002B02DD0098884208D0324640
:100FF000081B69460094CDE9010404A8FFF7B8FF77
:1010000006B070BDF30500000B06000023020000CF
:101010002DE9F04791460F4680460446002614F815
:10102000015B2DB100F07AF80068405DC007F6D191
:101030002B2D02D02D2D18D0641E4A46394620464D
:1010400000F0BAFA27B13968A14201D1C7F800808F
:101050004FF0020471050BD54042002803DDFFF775
:1010600099FB0460A007BDE8F08746F48066E4E7DA
:101070000028F8DAFFF78EFB04606FF00040F2E71B
:101080002DE9F04115460E46040002D12C6804B942
:101090000BA4204600F07EFB0444207870B1274664
:1010A0003146384600F066FB0444207810B1002039
:1010B00004F8010B38462C60BDE8F0810027F9E701
:1010C000000000004FF0000200B51346944696461B
:1010D000203922BFA0E80C50A0E80C50B1F120014B
:1010E000BFF4F7AF090728BFA0E80C5048BF0CC0F9
:1010F0005DF804EB890028BF40F8042B08BF704757
:1011000048BF20F8022B11F0804F18BF00F8012BC8
:101110007047000000487047C019002010B500F06B
:1011200005F8001D10BD00BF0D50000000487047BD
:10113000E019002030B5B0F10A024FEA900E71F1CB
:1011400000034EEA817EB0EB0E0061EB91014FEAA5
:10115000101E4EEA017E10EB0E0041EB11114FEA1A
:10116000102E4EEA016E10EB0E0041EB11214FEAFA
:10117000104E4EEA014E10EB0E0041EB11414018AB
:1011800041F100014FEAD00040EA41704FEAD1013D
:1011900010EB80054FEA810444EA907444EB0104AB
:1011A0006D1944EB0404521BA3414FF0000348BFE8
:1011B0000A3200D530BD401C41F1000130BD10B5F0
:1011C0000446FFF7ABFF0068005D00F0010010BDB2
:1011D0002DE9F04F04460D46D21D22F0070089B0DC
:1011E000D0E9009248461746394604F0C0F9024655
:1011F000F80F01D02D2307E02068810701D52B23AC
:1012000002E0202101EAC0038DF820300BB101205B
:1012100000E00020032A824601D0072A04DB294689
:10122000204600F053F93DE12078800601D40D25D9
:1012300000E0E569C7F30A560D2D49DA00214FEAAF
:10124000175B08464FF00000002F00F4400007DA5B
:1012500000EB80004FF4400100EBD07001EA600029
:101260008115012901DD4FF0FF3100224FEA850C85
:10127000BCF1180F06D31346ACF118004FF08052A2
:10128000C24003E04FF4801323FA0CF30CF10C0C72
:10129000BCF1200F04D3ACF1200C09FA0CF001E0F2
:1012A00007FA0CF000294FF0004801DD18B90FE0F3
:1012B0000ED140450CD319EB02095F4121B94045DD
:1012C00002D19F4329EA0209BBEB175F00D0761CCD
:1012D0002088000502D57B48784402E079487844AC
:1012E000193808AA302302F80A30037C0AF10101F8
:1012F000002E0AF1020A53546A4602DC4FF0300114
:1013000001E04FF031014FF001088DF8001002D0DC
:10131000A6F2FF3603E059EA470100D06A4E002DDD
:1013200002DC2178090704D54FF002082E218DF840
:101330000110C44600210BE0C7F303433F01C35C27
:10134000491C6D1E02F80830052908F1010801DA70
:10135000002DF1DC00210CE000EB1973491C1B7817
:101360006D1E082902F808304FEA091908F1010832
:1013700001DA002DF0DC2178890602D514E0A8F10D
:101380000108E04505DD02EB080111F8011C3029D8
:10139000F5D0B8F1000F07DD02EB080111F8011CD0
:1013A0002E2901D1A8F10108002D05DD3E2102F80A
:1013B00008106D1E08F10108407C002E02F808009C
:1013C00008F1010804DA2D20764202F8080002E054
:1013D0002B2002F808000A214FF47A70864208F1A7
:1013E00001080BDB96FBF0F3303302F8083096FB74
:1013F000F0F308F1010800FB136601E0642E0CDB3A
:10140000642096FBF0F3303302F8083096FBF0F3DB
:1014100008F1010800FB136601E00A2E06DB96FBCB
:10142000F1F0303002F8080008F1010896FBF1F005
:1014300001FB1060303002F80800A16908F10108D2
:1014400008EB050202EB0A00081AA0612078C0062A
:1014500002D42046FEF732FF216A08AE01EB0A00F3
:10146000206204E0D4E9012116F8010B9047BAF19B
:10147000010AF7D22078C00602D52046FEF71EFFEB
:101480006E4609E016F8010B3E280FD0D4E9012181
:101490009047206A401C2062B8F10108F2D2204631
:1014A000FEF722FF09B00320BDE8F08F206A284430
:1014B000206203E0D4E90121302090476D1EEBD378
:1014C000F8E70000EB5D000002FCFFFF2DE9F041B2
:1014D0001F46044603260168072A01F4006004DB66
:1014E00008B116A505E016A503E008B115A500E0B2
:1014F00015A521F010002060A069C01EA0610FB1E9
:10150000401EA0612046FEF7D9FE4FB1D4E901216B
:1015100038469047206A401C2062C01C206206E0CA
:10152000206AFAE7D4E9012115F8010B9047761EED
:10153000F8D22046FEF7D8FEBDE8F0814E414E00BD
:101540006E616E00494E4600696E660010B54369D3
:1015500013B1AFF3008001E0FFF7ECFB012010BDF9
:10156000128800F1240182840022C2840122EDE766
:1015700011684FF0FF32E9E7426842B1016811F8A3
:10158000013B23B1521EC0E90012184670470121E9
:10159000C160881E704742685AB1C368016843B988
:1015A00083688B4205D0491E521CC0E900120020FE
:1015B00070474FF0FF3070472DE9F05F82461546C7
:1015C0008B4600270AF10104B9460078302801D083
:1015D0009DB113E014F8010B0127782803D0582897
:1015E00001D045B10AE00DB1102D07D1002714F844
:1015F000010B102502E0082500E00A250026B04670
:101600000EE005FB080005FB06F101271FFA80F834
:1016100001EB1046B6F5803F00D3B94614F8010B34
:10162000294600F0EAF80028EBDABBF1000F05D0FC
:101630000FB1641E00E05446CBF80040B9F1000F32
:1016400006D0FFF7A7F802210160C81EBDE8F09F91
:1016500048EA0640FAE700002DE9F04781461646C1
:101660008AB0334878440DC88DE80D00304878447E
:10167000801C03AC0DC884E80D0041F69B30084483
:10168000372190FBF1F290FBF1F5A5F1800501FB0C
:1016900012041B3C02D56442012000E00020DFF868
:1016A00090A080460027FA44AAF1BE0A0DE0E007A8
:1016B00009D03246684607EB47010AEB810101F089
:1016C00006F88DE8070064107F1C002CEFD1184F3E
:1016D0007F44AC3F18E0E80714D007EB04100DF18D
:1016E000180A90E80E008AE80E00C068F04201D1A6
:1016F00098190890324606A903A800F0E8FF03AB4A
:1017000083E807006D10641C002DE4D13246694661
:10171000B8F1000F03A802D000F0B1FF01E000F023
:10172000D6FFC9E90001C9F808200AB0BDE8F08772
:10173000F05A000070B516460C460546FFF7EEFC61
:10174000036893F80101012806D0FF2C0FD8185D1B
:1017500068B101202C7070BDD3F8070132462146D4
:1017600003F2071303442846BDE8704018474FF0C2
:10177000FF3070BD30B503461D781DB10A4603E049
:10178000AC4201D1181A30BD12F8014B002CF7D130
:101790005B1CF1E730B503461D783DB10A4612F8EF
:1017A000014B1CB1AC42FAD15B1CF5E7181A30BDF5
:1017B0007546FFF7AFFCAE4605006946534620F07C
:1017C0000700854618B020B5FEF740FDBDE8204073
:1017D0004FF000064FF000074FF000084FF0000BED
:1017E00021F00701AC46ACE8C009ACE8C009ACE8A0
:1017F000C009ACE8C0098D4670473A2800D230389D
:1018000020F02002412A01D3A2F13700884201D3FF
:101810004FF0FF30704700002DE9FF4F064689B0BA
:101820000878FF2806D0491C2D2805D000244FF049
:10183000000908E000200CE00124F8E709EB890327
:10184000491C00EB43090878FF28F7D114B1C9F10E
:1018500000008146107800252C46AA4629462D28EE
:1018600001D02B2804D1521C2D2813D000208246F1
:101870008B461078FF280FD04FF0000C0A21521C25
:10188000A5FB017804FB018105FB0C11C5194BEB8D
:101890000104EEE70120EAE7002108464FF00000CE
:1018A000BAF1000F02D000EB80004008C0F381586D
:1018B000B8F1010F01DD4FF0FF380C9809EB00077C
:1018C00055EA040009D04FF0020917F5FA7F0BDA48
:1018D0004FEACA70C6E900B012E04FEACA70C6E922
:1018E00000B00DB0BDE8F08FB7F5FA7F0DDDF04820
:1018F0007844D0E90010C6E9001040EACA70706070
:10190000FEF748FFC0F80090EBE7391E02DAC8F195
:10191000000200E0424600DA794206A8FFF79CFE8A
:1019200006AB93E8070003AB83E8070044F23E00F0
:101930005BEA04010090584604D144F21E012C4693
:101940005D460091210C0904014306D1009924044D
:1019500044EA15442D041039009104F07F410143FD
:1019600006D10099240244EA15642D020839009139
:1019700004F07041014306D10099240144EA157432
:101980002D01091F009104F04041014306D1009947
:10199000A40044EA9574AD00891E009104F0004152
:1019A000084304D100986D196441401E00904246DE
:1019B0006846002FCDE9014503A902DD00F09BFE3A
:1019C00001E000F070FEBAF1000F04460D4601D0B0
:1019D00084F0004440F2FF7724F00040284303D015
:1019E000C4F30A50B84212D1FEF7D4FEC0F80090FA
:1019F000C4F30A50B8420AD1AE487844D0E9001086
:101A0000C6E9001004F000410843706069E7C6E9C8
:101A1000005466E72DE9FF4F1F464FF0000A4FF0D4
:101A2000FF38454691B0D7E90146CDF83CA0FFF715
:101A30007DFBC0680168405C1090B96912986D1C0C
:101A40008847396A814688470028F6D1B9F1FF3FB7
:101A50000AD0002E24F4D06411DDB9F12B0F08D088
:101A6000B9F12D0F0BD102E0404615B03AE744F42E
:101A70008064B96912986D1C8847761E814660059E
:101A800004A901D52D2000E02B20002E01F1010B2F
:101A90000DF130088DF810003FDDB9F1690F08D065
:101AA000B9F1490F05D0B9F16E0F02D0B9F14E0F5F
:101AB0001CD13B4601A8009580E85002DDE91212D6
:101AC0006FF0020005F0BAF9C11CCED10EE0B96981
:101AD00012986D1C884781461398761E44F4007452
:101AE00005600F98401C002E0F9016DDB9F1300FE5
:101AF000EDD0B9F1780F02D0B9F1580F0DD10F9890
:101B000001280AD13B46CDE90054DDE91212001F3D
:101B1000029605F091F9C11CA7D1109989453ED1D3
:101B200044F0800406E01399681CAAF1010A44F409
:101B300000740860B9696D1C1298761E88473028B9
:101B40008146F0D02BE01099894505D1200603D4B9
:101B5000761E44F0800418E0484603F082FD08B386
:101B6000761E0DF123018B4544F4007408D2A9F1CF
:101B700030000BF8010B200607D5AAF1010003E0A5
:101B8000200602D40AF101008246A00502D513996D
:101B9000681C0860B96912986D1C88478146002E40
:101BA000D1DC53E0002E51DDB9F1650F02D0B9F15F
:101BB000450F4BD1A00549D5B9696D1C1298761E09
:101BC00024F440748847002E81460CDD2B2804D075
:101BD000B9F12D0F07D144F48074B96912986D1CC6
:101BE0008847761E8146E00501D52D2100E02B2196
:101BF00008F8011BCDF8008021E0761E0DF13901B7
:101C0000884544F400740CD2A9F1300010F0FF00B4
:101C100088F8000002D10099884509D908F1010827
:101C200006E0E00501D5244801E042F20F7082464B
:101C3000B96912986D1C8847814613980560002E7B
:101C400004DD484603F00DFD0028D6D1F96912984D
:101C50008847FF2053468BF8000088F800000020DA
:101C60000A900B9004AA0CA90AA8FFF7D5FDA005BD
:101C700002D46FF00100F8E614F0240F0AD0E00758
:101C800014D13868DDE90A12031D3B600068C0E921
:101C900000120BE00AA9684603F08CFCE00705D1AE
:101CA0003868009A011D3960006802602846DCE649
:101CB000F8590000EE580000F1D8FFFF0446AFF3DA
:101CC00000802046FEF7AFFA2DE9FF4F1F464FF088
:101CD0003C0987B04FF00042DDE9141001F1010822
:101CE000DDF858A002EA405003900020049083469B
:101CF000054604460590B969461E08988847AAF12A
:101D0000010A0290BAF1000F37DD02982E2815D093
:101D10001021FFF772FD00282ADB4FF0010B049918
:101D2000014316D0B9F1000F0BDB4A46C11700F092
:101D3000F7F905430C43A9F1040905E001200590DA
:101D400007E008B145F0010501200490059800B9AD
:101D5000361DB969089808F101088847BBF1000FE2
:101D6000AAF1010A0290CDD00999C1F80080C9E713
:101D70000298702808D0502806D0F969089888473A
:101D8000BBF1000F14D04FE0002002900120BBF106
:101D9000000F049009D0B969089808F10108884734
:101DA000AAF10109B9F1000F07DCF9690898884721
:101DB0006FF001000BB0BDE8F08F2B2804D02D2868
:101DC0000CD14FF0FF300490B969089808F1010870
:101DD0008847A9F10109B9F1000FE6DD411CE4D003
:101DE0000A21FFF70AFD0028DFDB029908F101084C
:101DF00001EB810100EB41000290B9690898884726
:101E00000A21FFF7FAFC099AA9F10109B9F1000FBB
:101E1000C2F8008001DD0028E7DAF96908988847F0
:101E20000499029800FB016655EA040004D004F00E
:101E30004041090002D006E0039898E0A40044EA7B
:101E40009574AD00B61E04F00041080002D16D1972
:101E50006441761E159810F0240F03D04FF00B0943
:101E60005C4803E04FF028096FF07D00824656453C
:101E700007DAAAEB06018944B9F1410F01DD4FF001
:101E8000410901200021A9F1010200F049F90246AF
:101E900028400B462140084301D0012100E00021E9
:101EA000501E029143F1FF3128402140084301D0E8
:101EB000012000E000200299834651EA0B014FD037
:101EC000002108464FF00000039900F4400039B1AA
:101ED00000EB80004FF4400100EBD07001EA60009D
:101EE0008015012802DD4FF0FF3000E013D0401CC8
:101EF00036D0029860B3BBF1000F0CD14A460120E6
:101F0000002100F00DF928402140084301D00120B4
:101F100000E00020E0B101204A46002100F000F975
:101F2000034640190A4661412D1A8C4111D3B9F17B
:101F3000400F09DD159810F0240F02D0AAF13406E5
:101F400003E0AAF1170600E0761C00254FF00044DC
:101F500006E05B1E42F1FF3220EA030521EA02049B
:101F6000CAF10100B04206DA1B4903980843019008
:101F7000002000900EE0039AC4F3D321E80A0A433C
:101F8000164940EA44500A433146CDE9000268460A
:101F900003F05CFB159810F0240F0BD01598C007C8
:101FA00015D13868DDE90012031D3B600068C0E907
:101FB00000120CE002A8694603F0FCFA1598C0076D
:101FC00005D13868029A011D3960006802604046F8
:101FD000F0E6000002FCFFFF0000F07F0000F03F91
:101FE0002DE9FF4F92461D4685B04FF00041DDE9D7
:101FF000124BDDE914727F1E01EA4B50414940F05B
:10200000FF4940EA0108002122F0200049280491FC
:1020100002D04E2828D04CE03BA0012607C88DE80E
:102020000700A9690698641C88477F1E014606D4EC
:102030001DF8060018B121F0200181420BD0E9699A
:1020400006988847032E34D0082E32D06FF0010056
:1020500009B0BDE8F08F761C032E01D0082EE0D128
:10206000601CCAF80000DCE7A9690698641C884770
:102070007F1E2AD420F02000412826D1A969069885
:10208000641C88477F1E20D420F020004E281CD1DD
:10209000A9690698641C88477F1E48F4002849F403
:1020A0008009CAF8004001D4282806D0E9690698BA
:1020B00088475FEACB7012D022E0A9690698641CB9
:1020C00088477F1E01D4002803DAE969069888470B
:1020D000BCE72928F1D1641CCAF80040E9E71BF0ED
:1020E000240F07D028680499031D2B600068C0E9FD
:1020F000001805E02868021D2A600068C0F80090FA
:102100002046A5E70000F07F494E46494E49545904
:102110000000000001491820ABBEFEE726000200C7
:10212000B2F120030AD5C2F1200301FA02F120FA2C
:1021300003F300FA02F041EA0301704700FA03F1E9
:102140004FF00000704770475FEA400C08BF91F005
:10215000000F4FEA8C234FEAC12243EA51514FEA64
:102160001C5018BF00F5F0404FEA300018BF41F096
:1021700000415FEA6C5C00F02980BCF1FF3F08BFC2
:1021800040F080407047130C06BF12044FF0100C53
:102190004FF0000C130E04BF12020CF1080C130FC9
:1021A00004BF12010CF1040C930F04BF92000CF158
:1021B000020CD30F04BF52000CF1010C11464FF07A
:1021C0000002A0F11F00A0EB0C00704711F0004FBF
:1021D00008BF704731F000413FF4D5AF0B0C06BF8C
:1021E00009044FF0100C4FF0000C0B0E04BF090255
:1021F0000CF1080C0B0F04BF09010CF1040C8B0F40
:1022000004BF89000CF1020CCB0F04BF49000CF194
:10221000010CCCF12003A0EB0C0022FA03F302FA2C
:102220000CF241EA030100F10100704720F07F4CFD
:1022300080EA030023F07F47ACEB070303F57C53F0
:1022400000F0004003F1FF032DE980494FEA154BF0
:1022500009B44FEA144325EA0B4E24EA03480FF26F
:10226000042606EB132749083E785FEA320203FB97
:102270000667C7F5000707FB06F64FEA54374FEA33
:10228000D64606F1020607FB066CCCF1005C4FEA6D
:102290001C472CEA074C07FB06F40CFB06F504EB85
:1022A00015464FEA961634BF00204FF000404FEA23
:1022B000D13706FB07FC4FEA1C4C0CFB0BF7D21B7B
:1022C00003FB0CF761EB07010CFB0EF7B0EB0740CB
:1022D00072EB17420CFB08F734BFA2EB0742B2EBDC
:1022E000074261EB17414FEA0C444FEA910706FBA6
:1022F00007FC4FEA1C4C0CFB0BF7B0EBC74072EB32
:10230000573203FB0CF734BFA2EBC742B2EBC74214
:1023100061EB57310CFB0EF7B0EBC70072EB577255
:102320000CFB08F734BFA2EBC702B2EBC70261EBAC
:102330005771039F4FEA816141EA921104EBCC048B
:102340004FEAD1374FEA826206FB07FC42EA90125D
:102350004FEA80604FEA1C4C0CFB0BF7D21B03FBCF
:102360000CF761EB07010CFB0EF7B0EB074072EBCB
:1023700017420CFB08F734BFA2EB0742B2EB07424F
:1023800061EB17414FEA8C554FEA910704EB9C240F
:1023900006FB07FC4FEA1C4C0CFB0BF7B0EBC740ED
:1023A00072EB573203FB0CF734BFA2EBC742B2EB20
:1023B000C74261EB57310CFB0EF7B0EBC70072EB75
:1023C00057720CFB08F734BFA2EBC702B2EBC7028F
:1023D00061EB577115EB4C254FEA816141EA92118F
:1023E0004FEA82624FEAD13742EA901206FB07FCBD
:1023F00044F100044FEA80604FEA1C4C0CFB0BF7E1
:10240000D21B03FB0CF761EB07010CFB0EF7B0EBE3
:10241000074072EB17420CFB08F734BFA2EB0742F0
:10242000B2EB074261EB174115EB1C154FEA813106
:1024300041EA92414FEA823242EA90424FEA8030CA
:102440004FEA0C7644F1000448EA03434EEA0B4895
:102450004FF0000EB2EB080C71EB030724BF62468D
:1024600039464EEB0E0E4FF0000B00185241494119
:102470004BEB0B0BB2EB080C71EB03077BF1000B82
:1024800024BF624639464EEB0E0E4FF0000B00188B
:10249000524149414BEB0B0BB2EB080C71EB0307BC
:1024A0007BF1000B24BF624639464EEB0E0E51EA1B
:1024B000020718BF46F0010616EB0E7655F1000232
:1024C00054F1000103D5BDE88901BDE80088BDE8ED
:1024D0008901BDE80048B619524141EB0101A3F161
:1024E0000103704780807F7E7D7C7B7A7978777668
:1024F00076757473727171706F6E6E6D6C6C6B6AE1
:102500006A6968686766666564646363626161607E
:10251000605F5F5E5E5D5D5C5C5B5B5A5A595958FB
:102520005857575656555555545453535252525165
:10253000515050504F4F4F4E4E4D4D4D4C4C4C4BBB
:102540004B4B4A4A4A494949484848474747474602
:10255000464645454544444444434343434242423E
:102560004241414146EA0646A3F570534FEA1646FA
:1025700046EA42564FEAD22242EA415210B54FEAA9
:10258000D121A3F1010300F017F820F0004000F181
:10259000010C00F0004701EB00501146BCF5006F44
:1025A00040EA070000D210BD02484FF0000140EAA7
:1025B000070010BD0000F07F002B26D4770021D04B
:1025C0001CB54FEA370703B44FF010004FF010016D
:1025D0004FF000000FBCBDE810400BF1010BBBF148
:1025E000010F08BF5FEA170722BF12F1010211F1C4
:1025F00001014FF0004143F1000300F0004043EAC5
:1026000000007047F9D35708DAE746EA064613F1A7
:10261000400F4FEA16461FDD13F1200FDFBF1643B0
:102620000A46002120335B42C8D0C3F1200746EAA6
:10263000064602FA07F74FEA164646EA0706C3F1CE
:10264000200722FA03F201FA07F721FA03F14FF00B
:10265000000342EA0702B1E746EA020646EA0646F6
:102660004FEA164646EA0106BCBF46EA0646360C65
:102670004FF000034FF000024FF000019EE72DE9FC
:10268000C048934630B491E8380007C831EA400C9E
:1026900048BF34EA430C03D5FFF7C8FDFFF78CFFB2
:1026A000F0BCBDE800882DE9C048934630B491E8FD
:1026B000380007C831EA400C48BF34EA430C03D560
:1026C000FFF7B4FDFFF74EFFF0BCBDE800882DE931
:1026D000C048934630B491E8380007C810F0804FE6
:1026E00008BF13F0804F03D100F019F8FFF764FF23
:1026F000F0BCBDE800882DE9C048934630B491E8AD
:10270000380007C810F0804F08BF13F0804F03D186
:1027100000F005F8FFF726FFF0BCBDE8008820F0C8
:102720007F4780EA030023F07F4C07EB0C03A3F5FF
:102730007C5300F00040A3F1FE0392F0000F00F084
:10274000B38095F0000F00F077802DE901494FEA42
:1027500011404FEA144621EA004800FB06FC24EA37
:10276000064708FB06F607FB08F800FB07F718EB1F
:1027700006484CEB164C4FEA124B18EB07484FEA51
:1027800015464CEB174022EA0B4E0BFB06FC25EAE4
:1027900006470EFB06F607FB0EFE0BFB07F71EEBCC
:1027A000064E4CEB164C4FF000061EEB074E4CEB62
:1027B000174B18EB0B0840F1000018EB0E0B58EB11
:1027C000000840F100008F1A4FF000013CBFC943E0
:1027D000661B14BFB5EB040C00213CBFC943F61BBC
:1027E0004FEA17444EEA8E0E27EA04454FEA1C478B
:1027F00004FB07622CEA074C05FB07F70CFB05F608
:1028000004FB0CFC16EB074642EB174216EB0C469A
:1028100042EB1C421BEB060658EB0202414146EA22
:102820009E0601D5BDE80189B619524141EB01016F
:10283000A3F10103BDE801894FEA14454FEA1147AE
:1028400024EA054621EA074C05FB07F406FB07F7D7
:102850000CFB06F105FB0CFC11EB074144EB1744A4
:102860004FEA124711EB0C4144EB1C4422EA074C9F
:1028700005FB07F206FB07F70CFB06F605FB0CFC55
:1028800016EB074642EB174216EB0C4642EB1C4593
:102890006A1854F1000148BF7047B619524141EB24
:1028A0000101A3F10103704795F0000F37D04FEA03
:1028B00011424FEA144721EA024624EA074C02FB80
:1028C00007F106FB07F70CFB06F402FB0CFC14EB0C
:1028D000074441EB17414FEA154714EB0C4441EB19
:1028E0001C4125EA074C02FB07F506FB07F70CFB2A
:1028F00006F602FB0CFC16EB074645EB174516EBFC
:102900000C4645EB1C42121951F1000148BF7047BB
:10291000B619524141EB0101A3F1010370474FEA9F
:1029200014454FEA114724EA054621EA074C05FB06
:1029300007F106FB07F70CFB06F24FF0000605FB5C
:102940000CFC12EB074241EB174112EB0C4251EB2E
:102950001C4148BF7047921841EB0101A3F10103EC
:102960007047002904D0816841F0010181607047FF
:10297000816821F0010181607047000010B51549A0
:1029800088420AD144150121204601F095FA2046DB
:10299000BDE81040002101F08FBA0F4988420AD1EA
:1029A00004150121204601F087FA2046BDE81040B9
:1029B000002101F081BA094988420AD10121CC03E2
:1029C000204601F079FA2046BDE81040002101F0D0
:1029D00073BA10BD0024014000280140003C0140B2
:1029E000014600208968490700D501207047C06C66
:1029F00080B270470246002012680A4200D00120CF
:102A00007047014600208968090700D501207047FA
:102A100010B542680E4B1A400C790B6842EA04224A
:102A20001343436082680B4B1A40D1E902432343AE
:102A30004C7942EA440213438360C26A22F4700272
:102A4000097C491EC9B242EA0151C16210BD0000B1
:102A5000FFFEF0FFFDF7F1FF70B5072609290AD93F
:102A6000C568A1F10A0404EB4404A640B543A340A1
:102A70001D43C56007E0056901EB4104A640B5436D
:102A8000A3401D4305611F23072A09D2446B521E30
:102A900002EB820293409C4391400C43446370BD1F
:102AA0000D2A09D2046BD21F02EB820293409C4391
:102AB00091400C43046370BDC46A0D3A02EB82027C
:102AC00093409C4391400C43C46270BD816841F0C7
:102AD000080181607047002904D0816841F4A00199
:102AE00081607047816821F4A0018160704781682E
:102AF00041F004018160704730B587B001214FF487
:102B0000017001F0CBF94FF4004001F0A1F903206E
:102B1000ADF8040000248DF8074001A9184800F022
:102B2000FBFC184D2846FFF729FF02948DF80C4056
:102B30008DF80D404FF460210491059401218DF82A
:102B4000181002A92846FFF763FF01212846FFF766
:102B500008FF2846FFF7BAFF2846FFF752FF002874
:102B6000FAD12846FFF7C3FF2846FFF739FF0028B0
:102B7000FAD101212846FFF7AEFF07B030BD0000B3
:102B8000000801400024014010B50B4C20880004CF
:102B900011D50A4802F018FE01280AD1084A09A1F5
:102BA000064802F0D3FF2088C0F30D010348FDF76B
:102BB0005FFD0020208010BDD80000208011002083
:102BC0002601002077656C636F6D650070B50C4C55
:102BD000002565600B48016821F0706101600168A3
:102BE00041F04071016025600F2002F013FF0126C3
:102BF00066600F2002F00EFF6560266070BD000069
:102C0000B8812142040C0140F8B50121082001F0EF
:102C100045F94FF48040ADF8000003258DF80250CF
:102C200014248DF80340094E6946304600F074FCC8
:102C30004FF40041ADF800108DF802508DF80340BC
:102C40006946304600F068FCF8BD0000000C014009
:102C500070B50C48016821F070610160016841F0B5
:102C600040710160084C01252560002666600F2038
:102C700002F0D0FE65600F2002F0CCFE2560666099
:102C800070BD0000040C0140B88121422DE9F047DD
:102C9000814600241748016821F0706101600168D5
:102CA00041F0006101600025134E00274FF001083C
:102CB000C6F8BC71322002F0ADFEC6F8BC813220ED
:102CC00002F0A8FE6006040ED6F8380108B1641CB4
:102CD000E4B26D1CEDB2082DEAD3C6F8BC71B9F1AF
:102CE000000F04D0FFF772FF2046BDE8F087FFF722
:102CF000AFFFF9E7040C0140008021422DE9F041CB
:102D000005461548016821F070610160016841F0D5
:102D100040710160114E0027C6F8BC7100244FF0CD
:102D20000108C6F8BC71280602D5C6F8B88101E0D2
:102D3000C6F8B8716806050E0F2002F06BFEC6F8E3
:102D4000BC810F2002F066FE641CE4B2082CE8D3BC
:102D5000C6F8BC71BDE8F081040C0140008021423E
:102D600070B50B48016821F070610160016841F0A5
:102D700040710160074C0120206060600E2002F06D
:102D800049FE002525600E2002F044FE656070BDFE
:102D9000040C0140B881214270B50B48016821F054
:102DA00070610160016841F040710160074C0020D2
:102DB000606020600E2002F02DFE012565600E206F
:102DC00002F028FE256070BD040C0140B88121424C
:102DD0002DE9F0410024174D00266E6001272F6079
:102DE0001548016821F070610160016841F00061DF
:102DF00001600E2002F00EFE6F60A5F5DC750E205E
:102E000002F008FE0BE0641CE4B2FA2C04D9FFF7D0
:102E1000C3FF0120BDE8F081012002F0FBFDD5F8E1
:102E200038010028EFD1C5F8BC610A2002F0F2FD9C
:102E30000020EFE7B8812142040C014038B50121A0
:102E4000042001F02BF84020ADF8000010208DF890
:102E5000030003208DF80200044C6946204600F070
:102E60005BFB4021204600F0E0FB38BD000801403C
:102E700070B50B4C002565600A48016821F00F0110
:102E80000160016841F0030101602560022002F049
:102E9000C1FD01206060022002F0BCFD656070BDD4
:102EA00080812142000C014038B50121082000F04A
:102EB000F5FF0320ADF8000014218DF803108DF804
:102EC0000200074C6946204600F026FB03212046FD
:102ED00000F0ADFB034801214160016038BD0000F6
:102EE000000C01408081214270B50B4C00256560CB
:102EF0000A48016821F00F010160016841F00301F7
:102F0000016001262660022002F084FD6660022036
:102F100002F080FD656070BD80812142000C01409F
:102F20002DE9F047814600241648016821F00F0181
:102F30000160016841F0080101600025124E002780
:102F40004FF00108C6F88471022002F063FDC6F854
:102F500084816006040ED6F8000108B1641CE4B256
:102F6000012002F057FD6D1CEDB2082DEAD3B9F136
:102F7000000F04D0FFF77CFF2046BDE8F087FFF785
:102F8000B3FFF9E7000C0140008021422DE9F04138
:102F900005461448016821F00F010160016841F005
:102FA00003010160104E4FF00008C6F88481002430
:102FB0000127E809C6F880016806050E022002F024
:102FC00029FDC6F88471022002F024FDC6F8848130
:102FD000022002F01FFD641CE4B2082CE9D3BDE816
:102FE000F0810000000C01400080214270B50B48C8
:102FF000016821F00F010160016841F003010160E7
:10300000074C012020606060042002F003FD0025D1
:103010002560042002F0FEFC656070BD000C0140DC
:103020008081214210B50C48016821F00F01016038
:10303000016841F003010160084C002060602060DD
:10304000042002F0E7FC012060602060BDE8104031
:10305000042002F0DFBC0000000C0140808121420E
:1030600070B500241248016821F00F010160016869
:1030700041F0080101600F4D0126C5F88061012073
:1030800002F0C8FCC5F88461012002F0C3FC07E02F
:10309000641CE4B2FA2C03D9FFF7C4FF012070BD11
:1030A000D5F800010028F3D1C5F8840170BD0000F7
:1030B000000C014000802142FEE770B50546002467
:1030C000FFF74EFE4620FFF719FE03E0641CE4B252
:1030D000FF2C03D0FFF77CFE0028F7D10024284600
:1030E000FFF70CFE03E0641CE4B2FF2C03D0FFF7F3
:1030F0006FFE0028F7D1FFF74FFEBDE870400520B6
:1031000002F074BC70B50F4C00256088002809D00F
:10311000012811D0022804D1657001F07DFE032042
:10312000207070BD08480126066000F06FFE08B1EF
:10313000668070BD658070BD01F0A8FD02206080D2
:1031400070BD0000000000209401214210B5094923
:103150000C460878497801EB002080B2608003F0CB
:10316000F5FA4FF03332044B03F0E8F802F0F8FFC1
:10317000606010BDA00000203333F33F10B50F484E
:103180000078012819D100F0A9F90D480024017830
:10319000012902D1047001F043FA0A48017801299B
:1031A00002D1047000F012F807480188012904D107
:1031B0000480BDE8104001F05FBC10BDCC000020D1
:1031C0001800002019000020D200002070B536A1A0
:1031D000364802F0B3FC01280AD035A1334802F08A
:1031E000ADFC012804D033A234A13048FDF750F8DB
:1031F0002E482DA1401D02F0A1FC01280CD02B4827
:103200002BA1401D02F09AFC012805D0274829A2D5
:103210002AA1401DFDF73CF8002000F00BFA6421C4
:10322000484340F6FF71B0FBF1F0C0F1640003F0D9
:1032300027FD1E4C2C3C6061012000F0FBF903F0DF
:1032400085FA1F4A1F4B03F0D1FA02F089FF03F001
:10325000EBFC00221C4B03F0C9FA02F081FFA061D5
:103260001A49884200DBA16101F0C0F970B901F090
:103270001BF8E06116490025884200DDE56100F099
:10328000CFFF20621349884200DD256202F006FE6E
:10329000606200F02DFA002804D002F0FFF903F07C
:1032A00007FDA06270BD00006F6E00004C000020A2
:1032B0006F666600206F66660000000025730000E0
:1032C0009A9999999999313F00408F4000007A442A
:1032D0000000F0420000DC42704700002DE9F05F82
:1032E000464C052546492078DFF818B10127464E9F
:1032F0004FF0070A4FF003094FF000080C281BD2CB
:10330000DFE800F0061C242938414E565F646973DB
:1033100001F0D8FC6425C6F89471322002F066FBF7
:10332000C6F89481322002F061FB6D1EEDB2002DD3
:10333000F1D1C6F894812770BDE8F09F01F018FD27
:1033400008B12570F8E702202070F5E701F074FD60
:1033500084F80090F0E7C6F89471C1F8B07101F0FC
:103360003DFD08B12570E7E70B202070BDE8F05F58
:1033700001F052BD01F050FD10B184F80090DBE780
:1033800004202070D8E7C6F89481C1F8B08101F01C
:1033900017FD10B184F800A0CEE706202070CBE71F
:1033A00001F074FC08B12570C6E784F80090C3E70B
:1033B00001F0F2FC10B108202070BDE784F800A0F5
:1033C000BAE701F0A3FC09202070B5E701F06CFC1E
:1033D0000A202070B0E701F0A9FCABF800800121C1
:1033E0000A4801F0A2FE6770A6E70121074801F034
:1033F0009CFEABF8008067709EE700000000002094
:1034000000802142D8000020000021420008004036
:1034100010B586B000F02AFB002858D02D49481F6F
:10342000421F531FCDE90132CDE903010F38431F7D
:103430000090143A2339143802F080FC25480A38E9
:10344000FDF78CF8234C5E3C208004F15900FDF719
:1034500085F801B26180B4F90000B4F9042090420B
:1034600001DBA08004E0B4F90620904200DCE0809B
:10347000B4F90820914201DB218104E0B4F90A206B
:10348000914200DC6181B4F90410B4F906201144C2
:1034900001EBD171A0EB610002B2A2810D480EA137
:1034A0000A38FCF7F5FEB4F90800B4F90A1008442C
:1034B000618800EBD070A1EB600002B2E28106B03F
:1034C0000448BDE8104004A1401FFCF7E1BE06B06F
:1034D00010BD00007E0000202533640010B50C49AB
:1034E000A1F10E0000F042FE0A4C58B108480E3817
:1034F00002F0BEF8C4E91C01054802F0B9F8C4E9BD
:103500001E0110BD0021A167E1672167616710BD41
:1035100018010020200000202DE9F0410022CC7885
:1035200004F00F03E40601D58C7823430C784FF0A8
:103530000F0714F0FF0F4FF0010C1CD005680CFAB8
:1035400002F40E882640A64211D1960007FA06F82A
:1035500025EA080503FA06F848EA0505CE78282E7C
:1035600002D0482E02D002E0446100E00461521C07
:10357000082AE4D305600A88FF2A1ED9456800227C
:1035800002F108060CFA06F40E882640A64210D175
:10359000960007FA06F825EA080503FA06F848EA4D
:1035A0000505CE78282E00D14461CE78482E00D172
:1035B0000461521C082AE3D34560BDE8F081000095
:1035C000F0B5154C002801DAE36900E06368C0F348
:1035D0000346420D120185B2C0F301579540032FF7
:1035E00007D0C2020CD50322B240934343F070626D
:1035F00009E023F07062636823F07063636002E0A7
:10360000AB4343F0706201B12A43002801DAE26162
:10361000F0BD6260F0BD00000000014002460020E5
:1036200092680A4200D001207047416170470161F1
:103630007047000010B50B4C0146072301222046BD
:10364000FFF70AFA01212046FFF745FA022120463A
:10365000FFF7D0F90028F9D02046BDE81040FFF769
:10366000C6B90000002401402DE9F0410D46184E76
:103670000027378002F0A4FB35B3164C20E00A2067
:1036800002F0B4F9308800041AD513A002F06AF9E8
:10369000A8B111A002F066F911A1FCF76DFF10A10D
:1036A0000020FCF769FF0FA1FCF766FF00228118DC
:1036B0004978A154521CD2B2112AF8D367743780CA
:1036C0006D1E2D042D0CDAD10248BDE8F0810000FA
:1036D000D8000020F80000205354414D4143000021
:1036E0002C0000000D0A0000FEE7FFF78DBA000075
:1036F00010B5FFF7D9FBAA2000F04AFA1E4C208033
:10370000AC2000F045FA6080AE2000F041FAA080C5
:10371000B02000F03DFAE080B22000F039FA2081BC
:10372000B42000F035FA6081B62000F031FAA081B3
:10373000B82000F02DFAE081BA2000F029FA2082AA
:10374000BC2000F025FA6082BE2000F021FAA082A1
:103750002188A2881143E28811432289114362899A
:103760001143A2891143E2891143228A1143628ADB
:103770001143014388B210BDA80000202DE9F04795
:1037800000274FF4FA76DFF874804FF40059DFF821
:1037900070A028E0304602F029F949465046FFF76C
:1037A0003DFF00BB98F80000401CC2B288F8002022
:1037B000062A18D188F80070124C01252560304681
:1037C00002F014F92760304602F010F90E49022089
:1037D00008700E4807802560304602F007F9276020
:1037E000304602F003F949465046FFF717FF00281C
:1037F000D0D088F80070BDE8F0870000C400002039
:10380000000C014094012142010000200200002030
:1038100008B50121082000F025FB4FF40050ADF859
:10382000000048208DF8030069460248FFF774FE47
:1038300008BD0000000C01402DE9F0418046002445
:1038400000270126084D0BE0C5F89461322002F0F4
:10385000CDF8C5F89471322002F0C8F8641CE4B2C7
:103860004445F1D3BDE8F08100002142F8B50121C3
:10387000042000F013FB0121082000F00FFB2020A2
:10388000ADF8000010268DF8036003248DF8024087
:103890000C4D69462846FFF73FFE20212846FFF7DA
:1038A000C4FEAD14ADF800508DF803608DF80240F1
:1038B000054C69462046FFF72FFE29462046FFF7B4
:1038C000B4FEF8BD00080140000C014038B50121EC
:1038D000082000F0E3FAB020ADF8000010208DF8C9
:1038E000030003208DF80200044C69462046FFF7D0
:1038F00013FEB0212046FFF798FE38BD000C0140B2
:10390000FEE7000000B50A4A4FF48071116000F034
:10391000A7F8074B4FF400701B1F186000F0A0F8C9
:10392000196000F09DF811605DF804EB00F098B8A4
:10393000140C014070B5082200210D4C900120604C
:103940000B4E4310251D083E0CE04806010E2B606F
:1039500000F086F8236000F083F83068800501D518
:1039600041F00101521ED2B2EFD22B60084670BD69
:10397000100C014070B5024608210C4B8C014D0122
:103980001E1F0EE01D6000F06BF8100601D53460BC
:1039900000E01C605006020E00F062F8356000F096
:1039A0005FF8491EC9B2EDD21D6070BD140C014014
:1039B00000B50D484FF4007101608215026000F0FF
:1039C0004FF8094B083B1868074A121D116000F0B8
:1039D00047F81868800501D5002000BD116000F08F
:1039E0003FF8012000BD0000100C014000B50A495D
:1039F0004FF480730B6000F033F84FF400720A60EC
:103A000000F02EF80449091F0B6000F029F80A6045
:103A10005DF804EB00F024B8140C014000B50F4A27
:103A20004FF48071116000F01BF80C4B4FF40070E4
:103A30001B1F186000F014F8196000F011F8074817
:103A40000C380068800504D5116000F009F80020EA
:103A500000BD116000F004F8012000BD140C01400D
:103A60000F20401EC0B20028FBD1704738B500249B
:103A70000121082000F012FA4FF44070ADF8000068
:103A800003208DF8020014208DF8030069461948C0
:103A9000FFF742FD0A2001F0A9FF00226B21D02090
:103AA00000F052F800B1012407221921D02000F0C3
:103AB0004BF808B1641CE4B206221A21D02000F0B1
:103AC00043F808B1641CE4B218221B21D02000F096
:103AD0003BF808B1641CE4B201221C21D02000F0A4
:103AE00033F808B1641CE4B2052C01D0002038BDC5
:103AF000012038BD000C014030B504460D46FFF7EB
:103B000057FFD8B12046FFF735FFFFF787FFB8B161
:103B10002846FFF72FFFFFF781FFFFF749FF641CDF
:103B2000E0B2FFF727FFFFF779FFFFF703FF044637
:103B3000FFF7E8FEFFF75AFF204630BD002030BDFA
:103B4000FFF754FF002030BD70B506460C46154601
:103B5000FFF72EFFB0B13046FFF70CFFFFF75EFF17
:103B600090B12046FFF706FFFFF758FF2846FFF702
:103B700001FFFFF753FFFFF739FF052001F036FF84
:103B8000012070BD002070BDFFF730FF002070BD28
:103B900070B505460024FFF729FAEE20FFF7F6F985
:103BA00003E0641CE4B2FF2C08D0FFF759FA0028A8
:103BB000F7D12846FFF7EAF9002405E0002070BDA0
:103BC000641CE4B2FF2C0AD0FFF74AFA0028F7D1B0
:103BD000FFF70CFAEF20FFF7D9F9002405E00020E9
:103BE00070BD641CE4B2FF2C13D0FFF739FA002833
:103BF000F7D10120FFF794F905460020FFF790F96F
:103C00000446FFF70FFA052001F0F0FE28022043DA
:103C100070BD002070BD70474FF4A06000F032B856
:103C200070B50F23C27801260178002A1ED0144AED
:103C3000126802F4E062C2F5E062120AC2F1040402
:103C4000D3404578A54082781A402A43120101F1F9
:103C5000E02181F80024007800F01F018E40400927
:103C6000800000F1E020C0F8006170BD01F01F008D
:103C700086404809800000F1E020C0F8806170BDF6
:103C80000CED00E00249084302490860704700005B
:103C90000000FA050CED00E070B588B004460D4652
:103CA0000121022000F0ECF80121052000F0F6F8D7
:103CB0004FF48070ADF81C0004208DF81F00194EE1
:103CC00007A93046FFF728FC8020ADF81C0018201B
:103CD0008DF81F0003208DF81E0007A93046FFF75E
:103CE0001BFCADF81440ADF810500020ADF81600E4
:103CF000ADF812000C4C04A9204601F081FA7021A5
:103D0000ADF800100121ADF802100221ADF8081045
:103D10006946204601F02CFA0121204601F005FAFF
:103D200008B070BD0008014000040040704700006A
:103D300010B511480023114A0178114800290BD011
:103D4000012911D0022915D11370002101F0EDF9DC
:103D5000BDE81040FFF7D6B91370002101F0E5F976
:103D6000BDE81040FFF7BABA01201070BDE810405E
:103D7000FEF70ABF10BD000001000020CC000020AB
:103D80000008004010B541F61F4421464FF47A70F8
:103D900001F018F901F044F92146C720FFF77CFF34
:103DA0004FF4165002F0B4F84FF4E134204602F01C
:103DB00001F9204602F050F9FFF758FEFFF795FC95
:103DC000FFF796FC00F012FCFFF738F8FEF794FEC0
:103DD000FFF71EFDFFF74AFDFFF778FD074C0721AF
:103DE0002180074801F008FA228806A10648FCF75E
:103DF0004FFABDE810400520FFF71EBD300000203F
:103E000000040040256400008800002010B50CA0CC
:103E100002F058F84FF4FA74204601F0E7FD20460E
:103E200001F0E4FD07A002F04DF80A2001F0DEFDEC
:103E3000BDE81040142204A104A001F0FFBD000061
:103E40002B2B2B000D0A00004F4B000041540000AB
:103E5000034A516821F4404101435160704700001A
:103E600000100240054A002903D051690143516105
:103E70007047516981435161704700000010024052
:103E8000054A002903D0D1690143D1617047D16946
:103E90008143D1617047000000100240054A0029AB
:103EA00003D09169014391617047916981439161A8
:103EB0007047000000100240054A002903D0D16875
:103EC0000143D1607047D1688143D16070470000E1
:103ED0000010024010B5264A516801F00C01254B34
:103EE000002927D0042927D0082927D0036051684A
:103EF00001F0F0010909204B5C5C0168E140416080
:103F0000546804F4E064240A1C5D21FA04F484601B
:103F1000546804F46054E40A1B5DD940C1605268DF
:103F200002F44042920B144B1B1F9A5CB1FBF2F15E
:103F3000016110BD0360DAE70360D8E7516801F45E
:103F40007011536803F48033022404EB914133B1C0
:103F500053689B0307D5094B59430160C7E7074BDB
:103F600059430160C3E7034B59430160BFE70000B9
:103F70000010024000127A00E400002000093D0019
:103F800070B53C21D020FFF7B7FD194C20703B21C4
:103F9000D020FFF7B1FD60702178164D41EA002076
:103FA00000B2A42690FBF6F028803E21D020FFF737
:103FB000A3FDA0703D21D020FFF79EFDE070A17809
:103FC00041EA002000B290FBF6F068804021D0204A
:103FD000FFF792FD20713F21D020FFF78DFD60712A
:103FE000217941EA002000B290FBF6F0A88070BD74
:103FF00026110020C60000202DE9F0414421D020E8
:10400000FFF77AFD234F38704321D020FFF774FD6E
:1040100078703978204C41EA002000B202F07FFB32
:104020001E4E4FF066352A46334602F087F902F0FD
:1040300019FB20804621D020FFF75EFDB870452196
:10404000D020FFF759FDF870B97841EA002000B29E
:1040500002F065FB2A46334602F070F902F002FBDB
:1040600060804821D020FFF747FD38714721D020DC
:10407000FFF742FD7871397941EA002000B202F081
:104080004EFB2A46334602F059F902F0EBFAA080C3
:10409000BDE8F08126110020C60000206666304091
:1040A00070B502223721D020FFF74EFD0A2001F023
:1040B0009DFC01220A211820FFF746FD0A2001F08D
:1040C00095FC03211820FFF717FD144C20700421E4
:1040D0001820FFF711FD60702178114D41EA002092
:1040E000288005211820FFF707FDA0700621182061
:1040F000FFF702FDE070A17841EA00206880072107
:104100001820FFF7F9FC207108211820FFF7F4FCB4
:104110006071217941EA0020A88070BD261100203D
:10412000C600002010B50024FEF71AFE4720FEF757
:10413000E5FD03E0641CE4B2FF2C13D0FEF748FE5B
:104140000028F7D10120FEF7A1FD074C20700020C8
:10415000FEF79CFD6070FEF71FFE052001F046FC97
:10416000002010BD012010BDA00000202DE9F04767
:104170008146884622A726490888020433D5C0F321
:104180000D0A2448002606700E8023A12348FCF760
:10419000F3F922E020A10020FCF7EEF90746022CFB
:1041A00002D0042C0CD016E03846FCF736FA85B263
:1041B0002A4639464846FCF77DFA09F805600AE0C8
:1041C0003846FCF72AFA85B22A4639464046FCF7BB
:1041D00071FA08F80560641CE4B2002FDAD1514688
:1041E0000E48FCF745FA99F8000028B198F800004D
:1041F00020B10120BDE8F0870020FBE70020F9E7AF
:104200004646464646462E46464646464600000038
:10421000D6000020D40000202C0000003011002027
:1042200070B5002400F06AF9802000F033F900F046
:10423000ADF9F52000F02EF900F0A8F9642001F0A6
:10424000D5FB00F05BF9812000F024F9641CA4B2D6
:1042500000F09CF90A2C01D00028EFD1012000F0D9
:10426000DFF80446012000F0DBF80546002000F0EE
:10427000D7F800F067F945EA042020F0030002F0C7
:1042800065FA064A064B02F0B1FA0022054B02F02D
:10429000E1FBBDE8704001F063BF00007644CF77DA
:1042A00001405F3F0000184070B5002400F026F97F
:1042B000802000F0EFF800F069F9F32000F0EAF850
:1042C00000F064F9642001F091FB00F017F98120FF
:1042D00000F0E0F8641CA4B200F058F90A2C01D0F8
:1042E0000028EFD1012000F09BF80446012000F0E7
:1042F00097F80546002000F093F800F023F945EA0E
:10430000042020F0030002F021FA064A064B02F0D6
:104310006DFA064A064B02F09DFBBDE8704001F0C5
:104320001FBF0000619FC6DE07F7653FCDCCCCCC38
:10433000CC6C474070B50C4C002525600B480168DB
:1043400021F470410160016841F440510160084866
:104350000560142001F05EFB01202060022001F0C6
:1043600059FB256070BD0000BC012142000C0140DA
:104370008C81214238B501210820FFF78FFD0121F2
:104380000420FFF78BFD01211048FFF719F90820E1
:10439000ADF8000010258DF8035003248DF802407D
:1043A00069460B48FFF7B8F8E802ADF800008DF851
:1043B00003508DF8024069460648FFF7ADF80649FC
:1043C000012008600549C1F88C0138BD00023000A9
:1043D000000C014000080140BC0121420080214244
:1043E00070B50C4C002525600B48016821F4704124
:1043F0000160016841F440510160084801260660EF
:10440000052001F007FB2660052001F003FB256075
:1044100070BD0000BC012142000C01408C81214292
:104420002DE9F047824600241748016821F47041C5
:104430000160016841F4004101600025134EDFF87E
:10444000509000274FF00108C6F8BC71052001F01C
:10445000E1FAC6F8BC816006040ED9F80C0108B177
:10446000641CE4B2052001F0D5FA6D1CEDB2082DF4
:10447000EAD3BAF1000F04D0FFF75CFF2046BDE895
:10448000F087FFF7ADFFF9E7000C01400000214283
:10449000008021422DE9F04705461548016821F4C6
:1044A00070410160016841F440510160114E4FF0CC
:1044B0000008C6F8BC810024DFF83C900127E80919
:1044C000C9F88C016806050E052001F0A3FAC6F8AC
:1044D000BC71052001F09EFAC6F8BC81052001F0F0
:1044E00099FA641CE4B2082CE9D3BDE8F087000017
:1044F000000C0140000021420080214270B50E48AE
:10450000016821F470410160016841F4405101608B
:104510000A4D012028600A4E3060042001F07AFA2A
:1045200000242C60042001F075FA3460BDE870406E
:10453000042001F06FBA0000000C01408C81214280
:10454000BC01214270B50E48016821F47041016040
:10455000016841F4405101600A4D002028600A4E74
:104560003060042001F056FA01242C60012001F093
:1045700051FA3460BDE87040042001F04BBA0000ED
:10458000000C0140BC0121428C8121422DE9F04107
:1045900000241348016821F470410160016841F46E
:1045A000004101600F4D0127C5F88C71012001F019
:1045B00031FA0D4EC6F8BC71012001F02BFA08E06B
:1045C000641CE4B2FA2C04D9FFF7BCFF0120BDE85B
:1045D000F081D5F80C010028F2D1C6F8BC01F6E74D
:1045E000000C0140008021420000214210B5FFF77D
:1045F000C1FEBDE81040AFF3008010B5FFF77EFFAD
:104600008020FFF747FFFFF7C1FFFE20FFF742FFC3
:10461000FFF7BCFF0446FFF795FF204610BD70472B
:1046200010B590B04FF480618D48FCF721F88DA152
:104630008B48FBF7C3FF914801688948FCF70CF8E9
:104640008FA18748FCF708F891A18548FCF704F88A
:10465000954897A10378954802886846FBF718FEAD
:1046600069467F48FBF7F8FF93A17D48FBF7F4FF0D
:1046700092A17B48FBF7F0FF96497948FBF7ECFFE6
:1046800095A17748FBF7E8FF92497548491DFBF76C
:10469000E3FF94A17248FBF7DFFF8E4970483C317D
:1046A000FBF7DAFF92A16E48FBF7D6FF894C2C3C52
:1046B000606902F0B9FA02460B4692A16846FBF720
:1046C000E7FD69466648FBF7C7FF90A16448FBF722
:1046D000C3FFA06902F0A8FA02460B4689A168460A
:1046E000FBF7D6FD69465E48FBF7B6FF8CA15C4838
:1046F000FBF7B2FFE06902F097FA02460B4681A190
:104700006846FBF7C5FD69465548FBF7A5FF89A13B
:104710005348FBF7A1FF206A02F086FA02460B46D7
:1047200078A16846FBF7B4FD69464D48FBF794FF56
:1047300084A14B48FBF790FF606A02F075FA0246CD
:104740000B4670A16846FBF7A3FD69464448FBF79A
:1047500083FF82A14248FBF77FFFA06A02F064FA60
:1047600002460B4667A16846FBF792FD69463C4846
:10477000FBF772FF7DA13A48FBF76EFF04F145019C
:104780003748FBF769FF81A13548FBF765FF04F166
:104790004A013348FBF760FF81A13148FBF75CFF1A
:1047A00004F14F012E48FBF757FF82A12C48FBF77D
:1047B00053FF04F136012A48FBF74EFF83A1284836
:1047C000FBF74AFF04F13B012548FBF745FF85A1B4
:1047D0002348FBF741FF04F140012148FBF73CFF70
:1047E00086A11F48FBF738FF04F154011C48FBF772
:1047F00033FF87A11A48FBF72FFF04F1590118482E
:10480000FBF72AFF87A11648FBF726FF04F15E019C
:104810001348FBF721FF88A11148FBF71DFFD4E9DE
:104820001C238CA16846FBF733FD69460C48FBF757
:1048300013FF8AA10A48FBF70FFFD4E91C2385A1C7
:104840006846FBF725FD69460548FBF705FF88A18B
:104850000348FBF701FF024801F0BAFA10B010BD9F
:10486000260500207B226964223A225357545A5F5E
:104870004269674469707065725F0000140000202F
:10488000222C22746F223A2275736572222C00004A
:10489000226465627567223A7B2276617269616281
:1048A0006C65223A22000000000000200200002077
:1048B00025642C2564000000227D2C002273657283
:1048C0007669636573223A7B2262656570223A22BB
:1048D000000000004C000020222C226C69676874E4
:1048E000223A2200222C22736572766F223A22002D
:1048F000222C226861726D66756C676173223A22A0
:1049000000000000252E316600000000222C2275D8
:104910006C74726176696F6C6574223A22000000D3
:10492000222C2274656D7065726174757265223A0D
:1049300022000000222C2268756D69646974792256
:104940003A220000222C2270686F746F636F6E64CD
:104950007563746F72223A2200000000222C2270CC
:1049600072657373757265223A220000222C226EE2
:10497000696E6561786973223A7B226779726F5F2D
:10498000785F737461747573223A2200222C226757
:1049900079726F5F795F737461747573223A220064
:1049A000222C226779726F5F7A5F737461747573FA
:1049B000223A2200222C22616363656C5F785F7368
:1049C0007461747573223A2200000000222C226167
:1049D0006363656C5F795F737461747573223A22E7
:1049E00000000000222C22616363656C5F7A5F73B4
:1049F0007461747573223A2200000000222C226D2B
:104A000061675F785F737461747573223A22000086
:104A1000222C226D61675F795F73746174757322F4
:104A20003A220000222C226D61675F7A5F73746105
:104A3000747573223A220000227D2C226770726DF9
:104A400063223A7B226C6F6E675F73746174757357
:104A5000223A2200252E366600000000222C226C0D
:104A60006174695F737461747573223A2200000087
:104A7000227D7D7D0000000030B5ADF5097D7E49C9
:104A800001A8FBF79BFD7DA101A8FBF7E5FD7A4995
:104A900001A8491DFBF7E0FD78A101A8FBF7DCFDAB
:104AA000754C77A12C3C04F16800228AFBF7F0FBDF
:104AB00004F1680101A8FBF7CFFD70A101A8FBF785
:104AC000CBFD81A8616900F0E1FF81A901A8FBF796
:104AD000C3FD6AA101A8FBF7BFFD81A8A16900F091
:104AE000D5FF81A901A8FBF7B7FD64A101A8FBF7D9
:104AF000B3FD81A8E16900F0C9FF81A901A8FBF716
:104B0000ABFD5EA101A8FBF7A7FD81A8216A00F01B
:104B1000BDFF81A901A8FBF79FFD58A101A8FBF7E4
:104B20009BFD81A8616A00F0B1FF81A901A8FBF794
:104B300093FD52A101A8FBF78FFD81A8A16A00F0A7
:104B4000A5FF81A901A8FBF787FD4CA101A8FBF7F0
:104B500083FD04F1450101A8FBF77EFD47A101A8F3
:104B6000FBF77AFD04F14A0101A8FBF775FD43A1AB
:104B700001A8FBF771FD04F14F0101A8FBF76CFDE3
:104B80003EA101A8FBF768FD04F1360101A8FBF77F
:104B900063FD3AA101A8FBF75FFD04F13B0101A809
:104BA000FBF75AFD35A101A8FBF756FD04F14001C2
:104BB00001A8FBF751FD31A101A8FBF74DFD04F160
:104BC000540101A8FBF748FD2CA101A8FBF744FD07
:104BD00004F1590101A8FBF73FFD28A101A8FBF74B
:104BE0003BFD04F15E0101A8FBF736FD23A101A8FE
:104BF000FBF732FDD4E91C0101F0B2FA014681A8AD
:104C000000F044FF81A901A8FBF726FD1BA101A824
:104C1000FBF722FDD4E91E0101F0A2FA014681A8AA
:104C200000F034FF81A901A8FBF716FD01A8FBF7EE
:104C3000F4FC84B2E1B201A800F0ACFE01AD010ABF
:104C40002955291948700FA101A8FBF705FD01A8F6
:104C5000FBF7E3FC84B200200B4B191F06E02A5C33
:104C60001A800A885206FCD5401C80B2A042F6D3B6
:104C70000DF5097D30BD00004C0000202C00000027
:104C8000256400000D0A000004480040142202A11F
:104C900002A000F0D3BE00004F4B000041542B4354
:104CA0004950434C4F534500142202A102A000F08A
:104CB000C5BE00004F4B000041542B4349505345A3
:104CC0004E44000010B50CA001F0FCF84FF4FA744B
:104CD000204600F08BFE204600F088FE07A001F081
:104CE000F1F80A2000F082FEBDE81040142204A171
:104CF00004A000F0A3BE00002B2B2B000D0A000027
:104D00004F4B000041542B5253540000142202A177
:104D100002A000F093BE00004F4B000041542B4313
:104D200049504D4F44453D310000000010B5ADF5F0
:104D3000007D0C4C6846A168FBF740FC6846616842
:104D4000FBF78AFC08496846FBF786FC6846E16881
:104D5000FBF782FC322205A1684600F06FFE0DF5DC
:104D6000007D10BD04000020F80000204F4B000023
:104D7000322202A104A000F061BE0000535441544D
:104D800055533A320000000041542B4349505354CC
:104D9000415455530000000010B50124322104A0F5
:104DA000FEF762FC0549086100B90024204610BDE9
:104DB00041542B4349465352000000000400002098
:104DC00005484FF4FA7202A1006800F037BE0000F7
:104DD000434F4E4E454354000400002047F23052EA
:104DE00001A108A000F02ABE736D617274636F6E3A
:104DF00066696720636F6E6E6563746564207769AA
:104E00006669000041542B43575354415254534D4B
:104E10004152543D32000000142202A102A000F0D1
:104E20000DBE00004F4B000041542B435753544FCD
:104E300050534D4152540000142202A102A000F030
:104E4000FDBD00004F4B000041542B43574D4F44D4
:104E5000455F4445463D3100AFF300800CB500226C
:104E6000019200922748016841F4803101604FF4BB
:104E7000A063016801F4003100910199491C01917E
:104E8000009911B901999942F3D10168890302D5BA
:104E90000121009100E000920099012930D11A49C6
:104EA0000A6842F010020A600A6822F003020A60EF
:104EB0000A6842F002020A6041684160416841604C
:104EC000416841F480614160416821F47C11416096
:104ED000416841F4E8114160016841F0807101606E
:104EE00001688901FCD5416821F0030141604168F6
:104EF00041F0020141604168C1F381010229FAD108
:104F00000CBD0000001002400020024010B501203E
:104F1000FEF7D3F8BDE810402020FEF7CEB84FF0E2
:104F2000E021042804D0086920F0040008617047DB
:104F3000086940F0040008617047704710B50F48D9
:104F4000016841F00101016041680D4A1140416072
:104F500001680C4A11400160016821F48021016060
:104F6000416821F4FE0141604FF41F018160FFF7A9
:104F700073FF05494FF00060086010BD001002404B
:104F80000000FFF8FFFFF6FE08ED00E010B501217C
:104F90008C07204600F0D5F860B10948018841F43B
:104FA000004101800121204600F0BCF8002120468C
:104FB00000F0BBF82046BDE81040012100F0B2B877
:104FC000D80000207FB504460D4601210846FEF7B3
:104FD00057FFADF80840ADF804500020ADF80A00C6
:104FE000ADF806004FF0804401A9204600F008F912
:104FF00001221146204600F0B0F81C218DF8001067
:1050000001218DF801108DF802108DF8031068460B
:10501000FEF706FE0121204600F087F87FBD000064
:105020001FB501210420FEF72BFF4FF4FA70ADF8F5
:10503000080041F61F40ADF804000020ADF80A005A
:10504000ADF806000E4C01A9204600F0D9F8012267
:105050004121204600F081F81E218DF80010012129
:105060008DF8011003228DF802208DF80310684698
:10507000FEF7D6FD0121204600F057F81FBD0000C5
:10508000000800402DE9F041214D0121284600F0A3
:1050900058F8B0B30121284600F044F81D4CE078E0
:1050A000401CC1B2E170227800200126012A19D1EA
:1050B0002279521CD2B2227163785B1CDBB263701E
:1050C000142B07D16070144FD7F8B0312BB10023E7
:1050D000C7F8B031282A02D004E00123F8E7207194
:1050E0000E4A16700E4B1A783AB9A278521CD2B2F8
:1050F000A270142A01D1A0701E70642901D1E07041
:10510000E6802846BDE8F041012100F00BB8000020
:1051100000080040CC000020008021421800002040
:1051200019000020C94301827047002904D001887A
:1051300041F0010101807047018821F001010180E7
:10514000704702460020138A0B4092890A40002BC8
:1051500002D0002A00D001207047002A03D08289A3
:105160000A438281704782898A43828170470000A6
:1051700070B5028C22F010020284028C8388048BAA
:1051800024F4E04424F440760D884FF6FF7404EADA
:105190000525354322F020020E8904EA061616433F
:1051A0004A8804EA02123243114EB04202D0114E34
:1051B000B04217D122F080024E8904EA0616164347
:1051C00026F040068A8804EA0212324323F4806300
:1051D00023F400638E8904EA86061E43CB8904EA21
:1051E0008303334383800583C9880187028470BDAC
:1051F000002C0140003401400187704781847047D2
:1052000030B502881B4C1C4DA0420DD0A8420BD0DB
:10521000B0F1804F08D0194B984205D0184B9842F6
:1052200002D0184B984203D122F070034A881A43E7
:10523000154B984206D0154B984203D022F4407388
:10524000CA881A4302808A8882850A880285A04219
:105250000AD0A84208D00E4A904205D00D4A90428A
:1052600002D00D4A904201D1097A01860121818242
:1052700030BD0000002C014000340140000400401B
:1052800000080040000C00400010004000140040E6
:1052900000400140004401400048014070B5214CED
:1052A00040F22551204600F0C0F8002810D02046DA
:1052B00000F054F9C1B21C4B4FF0000218780406FC
:1052C0000FD4440605D5432902D140F08000187060
:1052D00070BD4D2901D01A7070BD40F040001870AB
:1052E00070BD58880404FBD4440408D50A2902D0B0
:1052F0001A705A8070BD40F40040588070BD0D296E
:105300000BD00A4DC0F30D042955401C80B25880C3
:105310005028F3D91A705A8070BD40F480405880EC
:1053200070BD000000380140D40000203011002082
:1053300070B5164C40F22551204600F076F8002852
:105340001ED0204600F00AF9C4B2114D288801048D
:1053500016D4B0F5806F14D24FF08046002130464D
:10536000FFF74CFF298819B901213046FFF7DDFE10
:105370000849002008702888411C298006490C54DF
:1053800070BD40F40040288070BD00000044004023
:10539000D8000020180000208011002070B5164CA5
:1053A00040F22551204600F040F800280ED020465B
:1053B00000F0D4F8C1B2114A1088030406D44404A2
:1053C0004FF0000307D50A2901D0138070BD40F4C7
:1053D0000040108070BD0D290AD0094DC0F30D04A6
:1053E0002955401C80B210803F28F3D9138070BD2E
:1053F00040F48040108070BD00480040DA0000207A
:1054000080190020002904D0818941F40051818154
:105410007047818921F40051818170470246002044
:1054200012880A4200D00120704770B5002440F66F
:105430006A12C1F3421301F01F05012606FA05F2B4
:10544000012B0CD0022B0DD0838A1340090A8E4009
:10545000008830400BB100B10124204670BD838923
:105460001340F3E7038A1340F0E710B540F66A13E0
:10547000C1F3421301F01F040121A140012B07D009
:10548000022B07D014303AB102680A43026010BD03
:105490000C30F8E71030F6E702688A43026010BD6E
:1054A00030B585B004460D46208A4CF6FF710840A1
:1054B000E98801432182A0894EF6F3110840A988AA
:1054C0002A8911436A8902431143A181A08A4FF6B8
:1054D000FF410840A9890143A1826846FEF7FAFC12
:1054E0001D48844201D1039800E00298A189090473
:1054F00008D500EBC00101EB001029684900B0FBA2
:10550000F1F007E000EBC00101EB00102968890011
:10551000B0FBF1F06422B0FBF2F109010B096FF06E
:1055200018056B4300EB8300A3891D044FF0320381
:1055300007D503EBC000B0FBF2F000F00700084312
:1055400006E003EB0010B0FBF2F000F00F000843A0
:10555000208105B030BD0000003801408088C0F3D4
:1055600008007047C1F3080181807047FEE74900D9
:1055700050EAC12018BF04204A0D18BF40F00100B6
:1055800040F2FF72B2EB515F08BF40F00200012809
:1055900008BF0520704740F2013200204FF0E04183
:1055A00001F01ABC024A0020110701F015BC0000EE
:1055B00001FDFFFF10B50446D1E9000100F002F83B
:1055C000206010BDF8B504460D466A4600F078FA32
:1055D00000987E30009000281FDC002213462046F1
:1055E000294601F003F818D0002140F608004FF0DA
:1055F000000006462046294600F0B2FD044640F66B
:10560000080006EA00014FF0000034F0004004BF3B
:105610000220FBF7C8F82046F8BD0098FF280DDBF4
:105620000220FBF7C0F8002213462046294601F06D
:10563000DBF98CBF04484FF0FF40F8BD20462946F7
:10564000BDE8F84000F08CBD000080FF10B50446B6
:105650000A46D4E90003194600F0EEFAC4E9000155
:1056600010BD30380A2801D2012070470020704751
:1056700030B583B00446FBF791F805460020CDE92C
:105680000000024621466846FBF790FC2846FBF7DF
:105690008AF8DDE9000103B030BD000070B500F00C
:1056A00059F82A494A890B89A21A5A43D213B1F9E7
:1056B0001230B1F91440DB02144493FBF4F31A44A2
:1056C00002F108031B118B61A2F57A62B1F90E4059
:1056D00002FB02F35C43E415B1F902505543ED12AD
:1056E0002C44B1F9005004EB8504A41CA410B1F9BA
:1056F000045055436A13B1F90C501B136B431B1430
:105700001A44921C9210C98802F500425143C90BF9
:10571000001B4CF250325043B0F1004F03D2400016
:10572000B0FBF1F002E0B0FBF1F0400001124943A0
:1057300040F6DE3251430914054A42431214114423
:1057400001F6CF6100EB211070BD0000A800002021
:1057500043E3FFFF10B50024FDF748FCEE20FDF702
:1057600015FC03E0641CE4B2FF2C08D0FDF778FCC4
:105770000028F7D1F420FDF709FC002405E0002003
:1057800010BD641CE4B2FF2C08D0FDF769FC0028B2
:10579000F7D13420FDF7FAFB002405E0002010BD0E
:1057A000641CE4B2FF2C0DD0FDF75AFC0028F7D1A1
:1057B000FDF738FC142000F019F9BDE81040F62080
:1057C000FEF7E6B9002010BD2DE9F04104464FF484
:1057D00080614948FAF74CFF474A48A1204600F04B
:1057E000D7F9454800F098F90024012812D046A0C6
:1057F00000F0CAF8494F4A4D4A4E002859D00021BE
:105800003846FFF792FC2C700A2030700220FEF719
:1058100013F86EE0444A45A1374800F0DBF9424AEC
:1058200044A1521D344800F0D5F93F4A43A13C320F
:10583000314800F0CFF93C483C30FFF719FF002217
:10584000404B00F07BFD00223F4B00F0BBFC00F022
:1058500039FF354980B22C390882052801D107204B
:105860000882088A192801D314200882098A374837
:10587000FFF7C2FC36A12C4800F060F9354901253C
:10588000012810D0C1F89841274831A1401D00F0EF
:1058900055F93149012809D0C1F89441FEF7C0FEFD
:1058A0000020BDE8F081C1F89851EDE7C1F89451AE
:1058B000F4E72AA000F068F848B100213846FFF765
:1058C00034FC2C7034700320FDF7B6FF11E016484D
:1058D000373000F059F848B100213846FFF725FC71
:1058E0002C7034700420FDF7A7FF02E00520FDF7BF
:1058F000A3FF0120D5E70000260100207365727622
:105900006963657300000000436F6E6E65637469C0
:105910006F6E3A20636C6F736500000000080040F2
:1059200001000020000000204C000020626565702E
:10593000000000006C69676874000000736572768F
:105940006F000000000028400000144000040040E8
:105950006F6E0000000021420080214265747320B8
:105960004A616E0001460020054A1288130406D5DC
:10597000044BC2F30E0298541846FAF70DBE704756
:10598000D80000208011002001460148FAF704BE2B
:105990008011002070B5FF22FF23084D05F58076A9
:1059A00005E010F8014B54402A5D5A40335D491E12
:1059B000C9B2F6D243EA022070BD0000706E000842
:1059C00010B504466FF00400FFF7A9FA0649E00895
:1059D000087000EB4002C2EBC0104FF6FF7202EA03
:1059E000C000488010BD0000DC0000200849498844
:1059F00048434FF0E021486100238B61012008619A
:105A00000869C20701D0C003FAD50B618B617047EA
:105A1000DC0000200849097848434FF0E021486144
:105A200000238B61012008610869C20701D0C0030F
:105A3000FAD50B618B617047DC0000202DE9F04145
:105A4000884614460127104D00262E8000F0B8F934
:105A5000B8F1000F12D05CB910E00A20FFF7C6FFC2
:105A60002888000404D54046FFF77CFF20B92E802B
:105A7000641E2404240CF0D104B9002717B10120BE
:105A8000BDE8F0810020FBE7D800002010B50446F7
:105A900000200022235C03B12254401CC0B2102815
:105AA000F8D3084601F0C0F8024620460B46BDE890
:105AB000104001A1FAF7ECBB252E31660000000072
:105AC00010B5144600222260114A21F0004393428F
:105AD000A8BF10BD53EA000208BF10BDB3F5801F78
